{
  "_format": "hh-sol-artifact-1",
  "contractName": "ToDo",
  "sourceName": "contracts/_ToDo.sol",
  "abi": [
    {
      "inputs": [
        {
          "internalType": "uint256",
          "name": "",
          "type": "uint256"
        }
      ],
      "name": "ToDos",
      "outputs": [
        {
          "internalType": "uint256",
          "name": "id",
          "type": "uint256"
        },
        {
          "internalType": "string",
          "name": "date",
          "type": "string"
        },
        {
          "internalType": "string",
          "name": "toDoItem",
          "type": "string"
        },
        {
          "internalType": "bool",
          "name": "completed",
          "type": "bool"
        }
      ],
      "stateMutability": "view",
      "type": "function"
    },
    {
      "inputs": [
        {
          "internalType": "string",
          "name": "_text",
          "type": "string"
        },
        {
          "internalType": "uint256",
          "name": "_id",
          "type": "uint256"
        },
        {
          "internalType": "string",
          "name": "_date",
          "type": "string"
        }
      ],
      "name": "create",
      "outputs": [],
      "stateMutability": "nonpayable",
      "type": "function"
    },
    {
      "inputs": [
        {
          "internalType": "uint256",
          "name": "_index",
          "type": "uint256"
        }
      ],
      "name": "get",
      "outputs": [
        {
          "internalType": "string",
          "name": "",
          "type": "string"
        },
        {
          "internalType": "uint256",
          "name": "",
          "type": "uint256"
        },
        {
          "internalType": "string",
          "name": "",
          "type": "string"
        },
        {
          "internalType": "bool",
          "name": "",
          "type": "bool"
        }
      ],
      "stateMutability": "view",
      "type": "function"
    },
    {
      "inputs": [
        {
          "internalType": "uint256",
          "name": "_index",
          "type": "uint256"
        }
      ],
      "name": "toggleCompleted",
      "outputs": [],
      "stateMutability": "nonpayable",
      "type": "function"
    },
    {
      "inputs": [],
      "name": "totalItemsInList",
      "outputs": [
        {
          "internalType": "uint256",
          "name": "",
          "type": "uint256"
        }
      ],
      "stateMutability": "view",
      "type": "function"
    },
    {
      "inputs": [
        {
          "internalType": "uint256",
          "name": "_index",
          "type": "uint256"
        },
        {
          "internalType": "string",
          "name": "_text",
          "type": "string"
        }
      ],
      "name": "updateToDoItem",
      "outputs": [],
      "stateMutability": "nonpayable",
      "type": "function"
    }
  ],
  "bytecode": "0x60806040526000805534801561001457600080fd5b50610be5806100246000396000f3fe608060405234801561001057600080fd5b50600436106100625760003560e01c80630a17a46614610067578063455f5024146100855780639507d39a146100a1578063a0db6f70146100d4578063e127594114610107578063e257a37114610123575b600080fd5b61006f61013f565b60405161007c9190610768565b60405180910390f35b61009f600480360381019061009a91906107b9565b610145565b005b6100bb60048036038101906100b691906107b9565b6101b8565b6040516100cb949392919061089a565b60405180910390f35b6100ee60048036038101906100e991906107b9565b61032c565b6040516100fe94939291906108ed565b60405180910390f35b610121600480360381019061011c91906109a5565b610489565b005b61013d60048036038101906101389190610a05565b6104c9565b005b60005481565b6001818154811061015957610158610a9a565b5b906000526020600020906004020160030160009054906101000a900460ff16156001828154811061018d5761018c610a9a565b5b906000526020600020906004020160030160006101000a81548160ff02191690831515021790555050565b606060006060600080600186815481106101d5576101d4610a9a565b5b90600052602060002090600402019050806002018160000154826001018360030160009054906101000a900460ff1683805461021090610af8565b80601f016020809104026020016040519081016040528092919081815260200182805461023c90610af8565b80156102895780601f1061025e57610100808354040283529160200191610289565b820191906000526020600020905b81548152906001019060200180831161026c57829003601f168201915b5050505050935081805461029c90610af8565b80601f01602080910402602001604051908101604052809291908181526020018280546102c890610af8565b80156103155780601f106102ea57610100808354040283529160200191610315565b820191906000526020600020905b8154815290600101906020018083116102f857829003601f168201915b505050505091509450945094509450509193509193565b6001818154811061033c57600080fd5b906000526020600020906004020160009150905080600001549080600101805461036590610af8565b80601f016020809104026020016040519081016040528092919081815260200182805461039190610af8565b80156103de5780601f106103b3576101008083540402835291602001916103de565b820191906000526020600020905b8154815290600101906020018083116103c157829003601f168201915b5050505050908060020180546103f390610af8565b80601f016020809104026020016040519081016040528092919081815260200182805461041f90610af8565b801561046c5780601f106104415761010080835404028352916020019161046c565b820191906000526020600020905b81548152906001019060200180831161044f57829003601f168201915b5050505050908060030160009054906101000a900460ff16905084565b60006001848154811061049f5761049e610a9a565b5b9060005260206000209060040201905082828260020191906104c2929190610626565b5050505050565b6001604051806080016040528085815260200184848080601f016020809104026020016040519081016040528093929190818152602001838380828437600081840152601f19601f82011690508083019250505050505050815260200187878080601f016020809104026020016040519081016040528093929190818152602001838380828437600081840152601f19601f8201169050808301925050505050505081526020016000151581525090806001815401808255809150506001900390600052602060002090600402016000909190919091506000820151816000015560208201518160010190805190602001906105c69291906106ac565b5060408201518160020190805190602001906105e39291906106ac565b5060608201518160030160006101000a81548160ff021916908315150217905550505060016000808282546106189190610b59565b925050819055505050505050565b82805461063290610af8565b90600052602060002090601f016020900481019282610654576000855561069b565b82601f1061066d57803560ff191683800117855561069b565b8280016001018555821561069b579182015b8281111561069a57823582559160200191906001019061067f565b5b5090506106a89190610732565b5090565b8280546106b890610af8565b90600052602060002090601f0160209004810192826106da5760008555610721565b82601f106106f357805160ff1916838001178555610721565b82800160010185558215610721579182015b82811115610720578251825591602001919060010190610705565b5b50905061072e9190610732565b5090565b5b8082111561074b576000816000905550600101610733565b5090565b6000819050919050565b6107628161074f565b82525050565b600060208201905061077d6000830184610759565b92915050565b600080fd5b600080fd5b6107968161074f565b81146107a157600080fd5b50565b6000813590506107b38161078d565b92915050565b6000602082840312156107cf576107ce610783565b5b60006107dd848285016107a4565b91505092915050565b600081519050919050565b600082825260208201905092915050565b60005b83811015610820578082015181840152602081019050610805565b8381111561082f576000848401525b50505050565b6000601f19601f8301169050919050565b6000610851826107e6565b61085b81856107f1565b935061086b818560208601610802565b61087481610835565b840191505092915050565b60008115159050919050565b6108948161087f565b82525050565b600060808201905081810360008301526108b48187610846565b90506108c36020830186610759565b81810360408301526108d58185610846565b90506108e4606083018461088b565b95945050505050565b60006080820190506109026000830187610759565b81810360208301526109148186610846565b905081810360408301526109288185610846565b9050610937606083018461088b565b95945050505050565b600080fd5b600080fd5b600080fd5b60008083601f84011261096557610964610940565b5b8235905067ffffffffffffffff81111561098257610981610945565b5b60208301915083600182028301111561099e5761099d61094a565b5b9250929050565b6000806000604084860312156109be576109bd610783565b5b60006109cc868287016107a4565b935050602084013567ffffffffffffffff8111156109ed576109ec610788565b5b6109f98682870161094f565b92509250509250925092565b600080600080600060608688031215610a2157610a20610783565b5b600086013567ffffffffffffffff811115610a3f57610a3e610788565b5b610a4b8882890161094f565b95509550506020610a5e888289016107a4565b935050604086013567ffffffffffffffff811115610a7f57610a7e610788565b5b610a8b8882890161094f565b92509250509295509295909350565b7f4e487b7100000000000000000000000000000000000000000000000000000000600052603260045260246000fd5b7f4e487b7100000000000000000000000000000000000000000000000000000000600052602260045260246000fd5b60006002820490506001821680610b1057607f821691505b60208210811415610b2457610b23610ac9565b5b50919050565b7f4e487b7100000000000000000000000000000000000000000000000000000000600052601160045260246000fd5b6000610b648261074f565b9150610b6f8361074f565b9250827fffffffffffffffffffffffffffffffffffffffffffffffffffffffffffffffff03821115610ba457610ba3610b2a565b5b82820190509291505056fea2646970667358221220d7654f997b58720446c4b947d0f45f8e7c0c7662e3897429cc7f5f9aed5f106e64736f6c634300080a0033",
  "linkReferences": {},
  "deployedLinkReferences": {}
}